:0508850012084780FE8F
:03002300020800D0
:10080000C0E0C0F0C083C082C0D075D000C000C0BE
:1008100001C002C003C004C005C006C00730980C68
:10082000E599F4F5A0AF9912087DC298D007D006DB
:10083000D005D004D003D002D001D000D0D0D082D7
:07084000D083D0F0D0E032BC
:0E086200EF600B7E027DEFDDFEDEFC1F80F2FC
:010870002265
:1008470075985043878053890F438920758BF475BA
:0B0857008DF4C2ABD28ED2AFD2AC2227
:08087D008F993099FDC2992208
:0300000002087182
:0C087100787FE4F6D8FD75810702088549
:00000001FF
